:100000000C94A9020C94F0020C94F0020C94F002EF
:100010000C94F0020C94F0020C94F0020C94F00298
:100020000C94F0020C94F0020C94D0260C94A227AD
:100030000C94571D0C94F0020C94F0020C94F002F6
:100040000C94F0020C94F0020C94F0020C94F00268
:100050000C94F0020C94BF1D0C94F0020C94F0026E
:100060000C94F0020C94F0020C94F0020C94F00248
:100070000C94F0020C94F0020C94F0020C94F00238
:100080000C94F0020C94F0020C94F0020C94F00228
:100090000C94F0020C94F0020C94F0020C94F00218
:1000A0000C94F0020C94F0020C94F0024E055005F2
:1000B0005B0552055405560558055A055D055F0553
:1000C00061056C0563056505670569056B056E05CA
:1000D0002E132E13601360139E13BC134415441586
:1000E000FE134415A114A11413151C1544153D1538
:1000F000AE14AE14AE14AE14AE14AE14AE14AE14F0
:10010000AE14AE14AE14AE14AE14AE14AE14AE14DF
:10011000BF14CD14D414DB14E514D515D515E7158B
:10012000E715DE15E715E715E715D515D515E31520
:10013000E715E715E3150F2836282E2936282E292E
:100140008228A5282E29FC280B2907634236B79B55
:10015000D8A71A39685618AEBAAB558C1D3CB7CC27
:100160005763BD6DEDFD753EF6177231BF0000009F
:10017000803F05A84CCDB2D44EB93836A9020C50F8
:10018000B9918688083CA6AAAA2ABE000000803F32
:10019000165C1E001F002000210022002300240006
:1001A0002500260027002D002E002A002B00140019
:1001B0001A000800150017001C0018000C0012009F
:1001C00013002F0030003100390004001600070032
:1001D00009000A000B000D000E000F003300340070
:1001E0002800E1001D001B00060019000500110099
:1001F0001000360037003800E500E000E300E200C0
:100200002C00E600E7000151E400000000000000BF
:10021000165C3A003B003C003D003E003F004000C1
:10022000410042004300440045002A00C25CC35C18
:100230005200010001000100010001000100010065
:1002400001000100010001000100500051004F00B9
:100250000100010001000100010001000100010096
:100260000100BE5CBD5CBF5C01000100010001003B
:100270000100010001000100010035000100010042
:100280000100010001000100010000000000000069
:1002900000047F3F1F643214643214783C1E1E1425
:1002A0000A056801F000B40078005A000000000060
:1002B0000001010101010101010102020202020229
:1002C00002020203030303030303030404040404FC
:1002D00004050505050506060606060707070708BF
:1002E0000808080909090A0A0A0A0B0B0B0C0C0C6E
:1002F0000D0D0D0E0E0F0F0F101011111112121304
:10030000131414151516161717181819191A1A1B7D
:100310001C1C1D1D1E1F1F202021222223242525D9
:1003200026272728292A2B2B2C2D2E2F2F30313210
:1003300033343536363738393A3B3C3D3E3F404121
:10034000424344464748494A4B4C4D4F5051525303
:10035000555657585A5B5C5E5F60626364666769B6
:100360006A6C6D6E707173747678797B7C7E808137
:10037000838486888A8B8D8F91929496989A9B9D80
:100380009FA1A3A5A7A9ABADAFB1B3B5B7B9BBBD8D
:10039000BFC1C4C6C8CACCCFD1D3D6D8DADCDFE15E
:1003A000E4E6E8EBEDF0F2F5F7FAFCFF04033000C9
:1003B000000010034C0075006400640069007400C4
:1003C000650000000C0364006900300069006200F1
:1003D00000000403090409026D00040100A0FA09E9
:1003E0000400000103010100092111010001224064
:1003F000000705810308000A090401000103010246
:1004000000092111010001224D00070582030800A7
:100410000A09040200010300000009211101000182
:100420002236000705830308000A090403000103BC
:100430000000000921110100012239000705840391
:100440002000011201100100000008EDFE0C0A015D
:10045000100102030105010906A101050719E029A0
:10046000E715002501950875018102050819012984
:10047000059505750191029501750391010507190F
:100480000029F71500250195F875018102C00501C5
:100490000980A10185021601002603001A81002AA5
:1004A0008300751095018100C0050C0901A101852B
:1004B00003160100269C021A01002A9C0275109561
:1004C000018100C005010902A1010901A10005097E
:1004D0001901290515002501950575018102950170
:1004E000750381010501093009311581257F9502C8
:1004F0007508810609381581257F950175088106E3
:10050000050C0A38021581257F950175088106C002
:10051000C005010906A101050719E029E715002515
:100520000195087501810295017508810105081979
:100530000129059505750191029501750391010544
:1005400007190029FF150026FF0095067508810090
:10055000C00011241FBECFEFDAE0DEBFCDBF04B66E
:1005600003FE27C080917A0290917B02A0917C02C9
:10057000B0917D028730904BA740B04BD1F41092E0
:100580007A0210927B0210927C0210927D0214BEBD
:1005900084B7877F84BF0FB6F894A89580916000D8
:1005A000886180936000109260000FBEE0E0F8E385
:1005B000099511E0A0E0B1E0E8EFFAE502C005908E
:1005C0000D92A434B107D9F722E0A4E4B1E001C050
:1005D0001D92AA37B207E1F70E94FB230C947A2DF3
:1005E0000C94000081E0089581E008950C94F402D9
:1005F0000C94BC08CF92DF92EF92FF92853030F4DA
:10060000811105C0909180009F7704C084E0909193
:100610008000906890938000282F30E0AFEFBFEF0C
:100620000E940B2DDC01CB0142E0B695A795979572
:1006300087954A95D1F78C3744E1940728F469E00F
:1006400070E00E94BB2C27C08A50974DAF4FBF4F20
:100650006627782F892F9A2F25EF38E241E050E066
:100660000E94E32C69017A01CA01B9010E94AB2CF6
:100670009B01AC01C701B6010E94AB2CBB27A92F7F
:10068000982F872F009721E0A207B10511F0BC0138
:1006900002C06FEF7FEF7093890060938800FF9036
:1006A000EF90DF90CF900895259A2D9882E880935F
:1006B000800089E1809381008FEF9FEF9093870006
:1006C000809386000C9480210E9454030C94BA08F5
:1006D00008950C9468030C94690308950E94C11551
:1006E0000E946D032FEF84E39CE0215080409040F6
:1006F000E1F700C0000087E797E790930108809337
:1007000000080C94E51DFF920F931F93CF93DF9386
:100710008C01FC01C081D18180918B01811113C0BA
:100720008281882349F0CE010E941E1BF82E682F7B
:10073000CE010E94C71A04C0CE010E94F21AF82E00
:10074000BE018F2D04C0CE010E941E1BBE010E945F
:100750002006EC01B8010E94F602882309F465C264
:10076000CB3CFCE5DF0709F4CEC0D8F5C33C9CE5E3
:10077000D90709F48EC0E8F4C531FCE5DF0778F449
:10078000C2308CE5D80708F067C1C1159CE5D907D0
:1007900009F464C0C130DC4509F468C039C2C6310F
:1007A000FCE5DF0709F40DC2C23CDC4509F469C071
:1007B0002FC2F8018281C73CFCE5DF0709F48BC03A
:1007C00040F4C53CECE5DE0709F479C008F46DC0DF
:1007D0007CC0C93C9CE5D90709F489C008F481C0F4
:1007E0008CC0C33DFCE5DF0709F406C1C0F4F80185
:1007F0008281CF3CFCE5DF0709F4ACC040F4CD3C7E
:10080000ECE5DE0709F48DC008F485C08FC0C13D5A
:100810009CE5D90709F4C8C008F4B0C0D9C0C73DE9
:10082000FCE5DF0709F48BC150F4F8018281C53D76
:10083000FCE5DF0709F4FBC008F4E5C05FC1CB3D70
:10084000ECE5DE0709F4F8C0CC3DFCE5DF0709F470
:10085000FAC0C83DDC4509F0DBC198C1F8018281CE
:10086000882309F4E2C10E946E03DFC1F80182818E
:10087000882309F4DAC180911902816080931902FA
:10088000D4C1F8018281882309F4CFC10E94060DEA
:10089000CCC1F8018281882309F4C7C10E94EF1BF3
:1008A000827251F00E94750CC0C1882309F4BDC149
:1008B0000E94EF1B8272B1F30E946B0CB6C18823B9
:1008C00009F4B3C10E947D0BB0C1882309F4ADC106
:1008D0000E94950BAAC1882309F4A7C10E94B40BFA
:1008E000A4C1882309F4A1C10E94CF0B9EC1882313
:1008F00009F49BC10E94E90B98C1882309F495C1B2
:100900000E94040C92C1F8018281882309F48DC1F0
:100910000E94530A8AC1882309F487C10E94680A89
:1009200084C1882309F481C181E03BC0882309F494
:100930007CC10E94450A623071058105910540F035
:100940000E94450A653071058105910508F4B4CF10
:1009500082E027C0882309F468C10E94450A6630F6
:1009600071058105910540F00E94450A68307105C6
:100970008105910508F4A0CF86E013C0882309F40F
:1009800054C10E94450A693071058105910540F006
:100990000E94450A6E3071058105910508F48CCFDF
:1009A00089E00E94680C41C1882309F43EC10E947D
:1009B000450A6F3071058105910540F00E94450A96
:1009C000643171058105910508F476CF8FE0E9CF98
:1009D000882309F42AC10E94450A65317105810501
:1009E000910540F00E94450A673171058105910526
:1009F00008F462CF85E1D5CFF8018281882309F41C
:100A000014C188E1CECF882309F40FC10E94450AA2
:100A1000693171058105910540F00E94450A6232F5
:100A200071058105910508F447CF89E1BACF882384
:100A300009F4FBC083E2B5CFF8018281882309F471
:100A4000F4C080E006C0F8018281882309F4EDC07B
:100A500082E00E949724E9C0F8018281882309F48A
:100A6000DCC00E94511C811102C00E942B1C0E94FC
:100A70006E1C90E090936B0280936A02FE01E3503B
:100A8000FC45E231F10530F4EA5AFF4F80916A02E9
:100A90000C94052D80916A02816027C0826025C078
:100AA000846023C0806121C080621FC080641DC03B
:100AB00080681BC08460886018C08E7F16C08D7FE0
:100AC00014C08B7F12C08F7E10C08F7D0EC08F7BB5
:100AD0000CC08F770AC08B7F877F07C087FB2227D8
:100AE00020F991E0922790FB87F980936A02809128
:100AF0006A020E94721C0E94C11597C0882351F09F
:100B0000109249010E94891D9093460180934501EE
:100B100082E022C08091490181110FC0809145017E
:100B2000909146010E94951D883C910530F486E223
:100B30000E94891186E20E94851282E024C0F80199
:100B40008281882361F010924A010E94891D90934E
:100B500048018093470180E20E94EB1266C08091B9
:100B60004A0181110FC080914701909148010E9474
:100B7000951D883C910530F487E20E94891187E237
:100B80000E94851280E20E94F2124FC0F801828119
:100B90008111D9CF80914A018111F4CF8091470111
:100BA000909148010E94951D883C910558F780E27C
:100BB0000E94F21288E20E94891188E20E94851246
:100BC00034C00E94EF1B982FF801828120910D0103
:100BD00030910E01882379F09A7A81E009F480E05F
:100BE00080934401911102C069E201C065E3C9012B
:100BF0000E94DD1C0AC080914401811102C069E29B
:100C000001C065E3C9010E94E81C0E94BC1B0DC025
:100C100081E08093490180934A01C801DF91CF911F
:100C20001F910F91FF900C94F20280E0DF91CF9121
:100C30001F910F91FF90089580E090E0089508952E
:100C4000E72FF0E098E0899FE00DF11D112483E08B
:100C5000EE0FFF1F8A95E1F7E60FF11DEE0FFF1F64
:100C6000E057FE4F859194910895880F991FFC01DC
:100C7000E057FD4F859194910895CF93DF930E94A3
:100C800020060E941808EC01811521E5920708F062
:100C900042C0811540E5940708F01CC1883E9105CB
:100CA00000F5803E910508F0BFC1883A910570F4C7
:100CB000853A910508F099C08130910509F4B4C1D5
:100CC00008F46BC1049708F0AFC167C18D3B910573
:100CD00008F496C0803C910508F45FC1805C9109DE
:100CE000E8C0C11580E3D80780F4C11520E2D2071F
:100CF00008F0DDC0C03FD10508F44FC1CF3FD1059A
:100D000011F008F091C1D0658FC1C11540E4D4073E
:100D100008F0DDC0D2C0C11589E5D80740F5C1157E
:100D200028E5D20708F023C1C11544E5D40778F4BB
:100D3000C11583E5D80708F0FFC0C11522E5D20729
:100D400008F0E4C0DC2FCC27C16FD06A6DC1C1159B
:100D500045E5D40708F406C1C11586E5D80708F0B3
:100D60001CC1CF71DD27DC2FCC27D0625DC1CD3B0C
:100D70002CE5D20709F408C1C0F4CB3B8CE5D807B9
:100D800009F4FCC008F0FDC0C1154AE5D40708F01D
:100D900004C1CE0124E0969587952A95E1F78F70DE
:100DA000CF70C06ED0E0D06AE7C0C03C8CE5D807F9
:100DB00009F4F0C060F4CE3B4CE5D40709F4E7C079
:100DC000CF3BDC4509F0E9C0C0E0D2ED2DC1CE013A
:100DD00090568115904208F0E0C08D2F8F710E94CF
:100DE0009408DD27D0628F71C7C0853A910509F458
:100DF000D7C0863A910509F0D6C0C2E8D0E414C144
:100E0000883A910509F4D2C0893A910509F4D1C014
:100E10008A3A910509F4D0C08B3A910509F4CFC004
:100E20008C3A910509F4CEC08B3B910509F4CDC0F5
:100E30008C3B910509F4CCC08D3A910509F4CBC0E7
:100E4000803B910509F4CAC08E3A910509F4C9C0E6
:100E50008F3A910509F4C8C0813B910509F4C7C0D8
:100E6000823B910509F4C6C0833B910509F4C5C0D6
:100E7000843B910509F4C4C0853B910509F4C3C0C6
:100E8000863B910509F4C2C0873B910509F4C1C0B6
:100E9000883B910509F4C0C0893B910509F4BFC0A6
:100EA0008A3B910509F4BEC0C0E0D4E4BDC0CE01C8
:100EB0009F700E943506EC01B7C0CE019927D3FF81
:100EC00003C0EC01D86CB0C0EC01D06CADC0DF70D9
:100ED000D06AAAC074E0969587957A95E1F7282F95
:100EE00023703C2F337081E090E002C0880F991F7F
:100EF0003A95E2F79C68922BCF70C695C69540E272
:100F0000C49FE0011124C82BD92B8EC0CE01837061
:100F1000992721E030E002C0220F331F8A95E2F7C3
:100F20008C2F8695869540E2849FC0011124E901AB
:100F3000C82BD92BDC6878C0CE018370992721E0BB
:100F400030E002C0220F331F8A95E2F78C2F86957E
:100F5000869540E2849FC0011124E901C82BD92B5A
:100F6000DA6862C0DC2FCC27C46FD06A5DC0DC2F8A
:100F7000CC27C06FD06A58C0D82B56C0C0E0D4ED83
:100F800053C0C0E0D5ED50C0C0E0D1ED4DC0C0E0D1
:100F9000D0ED4AC0C0E0D3ED47C0C0E0D0E044C0CF
:100FA000C1E8D0E441C0C3E8D0E43EC0C2EED4E41E
:100FB0003BC0C9EED4E438C0CAEED4E435C0C5EBBA
:100FC000D4E432C0C6EBD4E42FC0C3EBD4E42CC0CD
:100FD000C4EBD4E429C0C7EBD4E426C0CCECD4E401
:100FE00023C0CDECD4E420C0C3E8D5E41DC0CAE8DA
:100FF000D5E41AC0C2E9D5E417C0C4E9D5E414C0E9
:10100000C1E2D6E411C0C3E2D6E40EC0C4E2D6E425
:101010000BC0C5E2D6E408C0C6E2D6E405C0C7E20C
:10102000D6E402C0CAE2D6E4CE01DF91CF910895A2
:101030008238910549F1B0F48133910509F459C022
:1010400048F48932910509F44FC08A32910509F4B8
:1010500055C008958533910509F441C08933910540
:1010600099F00895833E910531F138F4803E910561
:1010700091F0823E9105A9F00895863E910501F117
:10108000873E910539F1089520916A0220FD3BC009
:1010900021FD39C0089580916A0280FF34C089E340
:1010A00041C080916A0282FF30C080916A0284FD53
:1010B0002EC083EE37C080916A0282FD26C0F5CF34
:1010C00080916A0283FF25C080916A0284FD1FC05F
:1010D00087EE28C080916A0283FD1BC0F5CF809106
:1010E0006A0285FD18C019C080916A0285FD15C08D
:1010F00012C080916A0286FD12C013C080916A02FC
:1011000086FD0FC00CC080EE0DC082EE0BC080E0EB
:1011100009C086EE07C089E205C085E303C08AE204
:1011200001C081E390E0089590916A0292FF0DC0A2
:10113000282F2871283019F4877F846006C0282F53
:101140002471243011F48B7F886093FF0DC0282F09
:101150002871283119F4877E846106C0282F2471F4
:10116000243111F48B7E886194FD877E0895089563
:101170000C94B7080C94B8080C94B708CF93DF937D
:10118000A8E2B1E040E351E061E070E08D91E82F2A
:10119000E295EF70F0E091A18F709B0101C0220FEA
:1011A0008A95EAF7822F8095892381A34A175B07E6
:1011B00069F7A0E2B1E048E251E061E070E08D91B2
:1011C000E82FE295EF70F0E021A18F70EB0102C0F3
:1011D000CC0FDD1F8A95E2F7CE019C2F90959223CC
:1011E00091A392A1892B82A34A175B0741F7E3E5FC
:1011F000F1E0ABE4B1E08BE591E011921D928E1726
:101200009F07D9F7DF91CF910C9464034F925F92BF
:101210006F927F928F929F92AF92BF92CF92DF9206
:10122000EF92FF920F931F93CF93DF9328E2C22E8A
:1012300021E0D22E0BE411E0E801EE24E394F12C3E
:10124000BB24B394BE0198801882D6018D916D01A4
:10125000E82FE295EF70F0E021A18F70A70102C0A6
:10126000440F551F8A95E2F7CA01242B21A322A11E
:10127000A42EA0942A2122A350EA5A95F1F790E2D5
:10128000492E91E0592E20E030E0D2018D902D01C1
:10129000482D42954F7050E0DA0190966C9078801E
:1012A000582D5F70D70102C0AA0FBB1F5A95E2F7F5
:1012B000AD01562D542341F45E2D022E01C0550F71
:1012C0000A94EAF7452F01C040E0472948832F5F81
:1012D0003F4F28303105C9F691A1A922A1A292A1C0
:1012E000892B82A32196FB018081981641F0B09250
:1012F0005B010E94891D90935D0180935C01F1E088
:10130000C335DF0709F09ECF80915B018823A1F0F0
:1013100080915C0190915D010E94951D069760F09F
:10132000E3E5F1E0D8018D918D018193B1E00335C2
:101330001B07C1F710925B010E94F80281E0DF9168
:10134000CF911F910F91FF90EF90DF90CF90BF90C2
:10135000AF909F908F907F906F905F904F90089587
:10136000E82FF0E0ED5AFE4F808108950895EF9246
:10137000FF920F931F93CF93DF93E901662309F444
:101380004BC0242F30E0EFEFF0E0E61BF109B9018C
:10139000E69F9001E79F300DF69F300D1124232F1B
:1013A0008B01031B11095CE3E52EF12CB7010E94B0
:1013B000BB2CFB01BC01069FC001079F900D169F2F
:1013C000900D1124B7010E94BB2CE230F105B1F061
:1013D00040F4309779F0319711F5832F242F461B75
:1013E00021C0E430F105A1F068F03597C1F4842FF5
:1013F000861B18C0832F262F230F14C0862F830F20
:10140000E42F03C0E42FE61B842F432F2E2F0AC0A6
:10141000842F462F430F06C0842F242F03C080E063
:1014200020E040E0E42FF0E0E455FD4F4491E22F4E
:10143000F0E0E455FD4F9491E82FF0E0E455FD4FC6
:10144000E49149839883EA83DF91CF911F910F91B3
:10145000FF90EF90089588E090E00C943A2DAB0156
:10146000BC0188E090E00C94582DE7E4F2E083E0C2
:101470008083109248028FEF82838383148260817D
:101480007181828193810C942F0A6091470260FFE1
:1014900006C066956F7370E080E090E0089560E0AC
:1014A00070E0CB01089580914B0290E0019684306A
:1014B000910514F083E090E080934B026091470225
:1014C000709148028091490290914A020C942F0A2F
:1014D00080914B0290E0019797FF02C080E090E07E
:1014E0008430910514F083E090E080934B0260918A
:1014F0004702709148028091490290914A020C94EF
:101500002F0A8091470280FF06C068E070E08CE4FB
:1015100092E00C944110ECE4F2E01182108212820D
:10152000339682E0E436F807C1F7EFCF9091470297
:1015300090FF0CC0ECE4F2E0818360834283339639
:1015400092E0E436F907C1F70C94810A0895CF932D
:10155000DF9300D01F92CDB7DEB72091470220FF66
:101560000AC09E012F5F3F4F0E94B7094B816981DE
:101570008A810E94960A0F900F900F90DF91CF9171
:1015800008955F926F927F928F929F92AF92BF92D7
:10159000CF92DF92EF92FF920F931F93CF93DF933F
:1015A00000D01F92CDB7DEB78C01E62EF42E522E5E
:1015B0008091470280FF8BC0982F9E77923061F414
:1015C0009E012F5F3F4FC8010E94B7094B8169817F
:1015D0008A810E94960A5BC0E82FE695EF739EE32E
:1015E0009E0F9F73943018F4F0904A0250C09AE313
:1015F0009E0F9F73993068F4881F8827881F9091E9
:101600004802292F220F022F082B97FB112710F9D0
:101610003EC087E28E0F8F738A30C8F5F0E079976D
:10162000E0FD02C021E001C02FEFEE7FEE55FD4F3F
:1016300085919491AC0183E0569547958A95E1F7A1
:1016400024034001259F900C1124580188E9A81A11
:101650008EEFB80A9CE4C92E92E0D92E28E6622EBD
:1016600077247394C501B3010E94BB2C96014F2DC2
:101670006E2D0E94B709A80CB91C83E0C80ED11CBE
:1016800084E6C81682E0D80669F70E94810A809134
:10169000470200FB87F980934702902F969580912F
:1016A00048028078892B10FB87F980934802E092EA
:1016B0004902F0924A02552051F060914702709120
:1016C00048028091490290914A020E942F0A0F908D
:1016D0000F900F90DF91CF911F910F91FF90EF909E
:1016E000DF90CF90BF90AF909F908F907F906F9042
:1016F0005F90089521E00C94C10AE7E4F2E02081B4
:10170000221F2227221F30914802432F440F842F8B
:10171000822B37FB992790F90A9668E671E00E94C0
:10172000CF2C438162810C947A0B20914702221FB7
:101730002227221F30914802432F440F842F822BEF
:1017400037FB992790F98A3091051CF4825A9E4FF5
:1017500005C00A9768E671E00E94CF2C40914A02CA
:10176000609149020C947A0B60914902862F90E0B7
:101770008F3E910514F46F5E01C06FEF80914702B8
:10178000881F8827881F90914802292F220F97FBD6
:10179000992790F940914A02822B0C947A0B609120
:1017A0004902862F90E0419714F0615101C060E03A
:1017B00080914702881F8827881F90914802292F0F
:1017C000220F97FB992790F940914A02822B0C94A3
:1017D0007A0B40914A02842F90E08F3E910514F4D9
:1017E0004F5E01C04FEF80914702881F8827881FF6
:1017F00090914802292F220F97FB992790F9609129
:101800004902822B0C947A0B40914A02842F90E07B
:10181000419714F0415101C040E080914702881F78
:101820008827881F90914802292F220F97FB99271C
:1018300090F960914902822B0C947A0B20E00C9471
:10184000C10ACF939091470290FF40C091788111D7
:1018500002C0926007C0853210F0986403C08F7395
:10186000880F982B90934702662351F060914702AE
:10187000709148028091490290914A020E942F0A79
:10188000C09147026C2F66956F7370E04BE050E09B
:1018900082E091E00E94252D892B19F010927B01A6
:1018A00003C081E080937B01CC1FCC27CC1F90919B
:1018B0004802892F880F97FB992790F940914A0297
:1018C000609149028C2BCF910C941E0CCF910895FE
:1018D00061E00C94210C8091470286958F738F5F95
:1018E000853208F081E00C94680C8091470286955F
:1018F0008F73815009F484E20C94680CE7E4F2E001
:1019000080818160808386958F730C94680C60E081
:101910000C94210C809119028160809319020E941D
:10192000511C811104C00E942B1C0E94350A0E9488
:101930002B0A609347027093480280934902909368
:101940004A026E7761F40E94350A0E942B0A609366
:101950004702709348028093490290934A0281E0C3
:1019600080937B018091470280FF04C086958F732E
:101970000C94870C08959091470290FF10C0283076
:1019800070F430E0F901EE0FFF1F2E0F3F1FF90139
:10199000E45BFD4F8183608342830C94810A089548
:1019A0001F93CF93DF9300D01F92CDB7DEB7309156
:1019B000470230FF0CC0122F9E012F5F3F4F0E9445
:1019C000B709212F4B8169818A810E94BB0C0F903E
:1019D0000F900F90DF91CF911F910895E7E4F2E00F
:1019E00080818E7F808360817181828193810E945A
:1019F0002F0A10927B012FEF80E792E02150804068
:101A00009040E1F700C000000C94810A80914702E9
:101A100080FD0C94EE0C0C947E0CCF93C82F80911B
:101A2000790190917A010E94951DEC2FF0E0E25629
:101A3000FD4FE491F0E08E179F0708F443C00E9429
:101A4000891D90937A01809379016091780170E00B
:101A500080E090E00E94AC2A20E030E04FE753E4C1
:101A60000E94CF292BED3FE049E450E40E94D52BA2
:101A70000E94422C0E94492A2BE43AE34EE25FE3A3
:101A80000E94622920EF3BEF48ED52E40E94D52BE3
:101A90000E947B2A462F80914702881F8827881F33
:101AA00090914802292F220F97FB992790F9609176
:101AB0004902822B0E94A70A8091780190E001964A
:101AC00080937801CF910895CF93C82F80917601AC
:101AD000909177010E94951DEC2FF0E0E556FD4FA7
:101AE000E491F0E08E179F07E8F00E94891D909323
:101AF00077018093760140914A026091490280917A
:101B00007401909175010E94A70A809174019091CF
:101B10007501019668E671E00E94BB2C90937501F7
:101B200080937401CF910895CF92DF92FF920F932B
:101B30001F93CF93DF93F82E8091720190917301E0
:101B40000E94951DEF2DE695F0E0E856FD4FE491DB
:101B5000F0E08E179F07B8F10E94891D90937301E2
:101B6000809372010CE412E0C0E0D0E088E6C82E59
:101B7000DD24D39480917001909171018C0F9D1F91
:101B8000B6010E94BB2C980140914A026091490223
:101B90000E94B709AD960D5F1F4FC83681E0D80788
:101BA00049F70E94810A8091700190917101F0FEC5
:101BB00005C00196BE010E94BB2C01C00197909305
:101BC000710180937001DF91CF911F910F91FF9070
:101BD000DF90CF900895CF92DF92EF92FF920F9314
:101BE0001F93CF93DF93C82F80FF02C01FEF01C068
:101BF00011E080916E0190916F010E94951DC69534
:101C0000EC2FF0E0EB56FD4FE491F0E08E179F07CC
:101C100008F458C00E94891D90936F0180936E0153
:101C2000CCE4D2E0E12CF12C198218821A8294E0E3
:101C3000C92ED12C00E080916D01800F87FD885F57
:101C4000082E000C990BE816F906E9F480914A0277
:101C50008C9DA0018D9D500D11245595479555954E
:101C6000479580914702881F8827881F90914802D6
:101C7000592F550F97FB992790F99E0160914902C2
:101C8000852B0E94B709010F81E0C81AD10899F687
:101C90008FEFE81AF80A239688E0E816F10421F697
:101CA0000E94810A80916D01113031F4811102C0CE
:101CB00087E006C0815004C090E0019687709927A4
:101CC00080936D01DF91CF911F910F91FF90EF9065
:101CD000DF90CF9008950F931F93CF93DF93C82F7A
:101CE00080916B0190916C010E94951DEC2FF0E0AA
:101CF000EE56FD4FE491F0E08E179F0708F456C0B2
:101D00000E94891D90936C0180936B01CCE4D2E01A
:101D1000FE01118210821282339682E0E436F807C7
:101D2000C1F700E010E080916A01082E000C990BC9
:101D300008171907ECF080910101082E000C990B8F
:101D400080179107ACF080914702881F8827881F71
:101D500090914802592F550F97FB992790F99E01B2
:101D600040914A0260914902852B0E94B70903C045
:101D7000198218821A820F5F1F4F239608301105AF
:101D800091F60E94810A8091000190916A01980F5A
:101D900090936A0120910101280F209301011216EE
:101DA00014F497301CF0819580930001DF91CF915E
:101DB0001F910F910895EF92FF920F931F93CF936E
:101DC000DF9380916801909169010E94951D883E82
:101DD0009340D0F10E94891D90936901809368011E
:101DE000C0916601D09167012196C170DD27D09323
:101DF0006701C09366018CE4E82E82E0F82E10E0C3
:101E000008E7812F8695FE01E80FF11DCF01817053
:101E10009927970140914A0260914902FC010E9F67
:101E2000C0010F9F900D11240E94B7091F5FF3E0BE
:101E3000EF0EF11C183029F7DF91CF911F910F9110
:101E4000FF90EF900C94810ADF91CF911F910F9139
:101E5000FF90EF900895CF93DF9300D01F92CDB7FE
:101E6000DEB780916401909165010E94951DE0E9C3
:101E7000F2E02591349182179307C0F180916301BC
:101E800081110CC09E012F5F3F4F4FEF6FEF80E03D
:101E900090E00E94B7098A81809363010E94891DA6
:101EA000909365018093640180916201813051F0CB
:101EB00028F0823061F4409163010AC0809163018F
:101EC00040E007C06091630140E080E003C040E073
:101ED00080E060E00E94960A8091620190E00196A5
:101EE00063E070E00E94CF2C809362010F900F900E
:101EF0000F90DF91CF910895CF93DF938091600190
:101F0000909161010E94951D843F914008F444C066
:101F10000E94891D9093610180936001C0E0D0E030
:101F200020915E0130915F018091470290914802BB
:101F3000C430D1051CF4232B79F002C0232B61F4AB
:101F4000881F8827881F392F330F97FB992790F90F
:101F50002C2F40914A020AC0881F8827881F392FDA
:101F6000330F97FB992790F92C2F40E0609149029D
:101F7000832B0E94D00C2196C830D10589F60E948F
:101F8000810A80915E0190915F010196817099278D
:101F900090935F0180935E01DF91CF9108958091CE
:101FA0007B018823D9F190914702892F86958F7301
:101FB0002EE3280F2F73243018F482500C940D0D4B
:101FC0002AE3280F2F73233018F486500C94640DE5
:101FD00027E3280F2F73263018F489500C94940DA2
:101FE00021E3280F2F73263018F48F500C94EB0D3B
:101FF0002BE2280F2F73233018F485510C946B0EAD
:10200000892F8E77803311F40C94DB0E863411F413
:102010000C942B0F883411F40C947C0F089525B187
:10202000342F3095232335B1432B3FB7F894FC016F
:10203000680F791FE617F70789F0819198E045B995
:10204000000000C087FF25B9880F000000C000C055
:1020500000C025B900C09A9591F7ECCF3FBF089515
:1020600024B1242B24B99B01220F331F620F731F4D
:102070000E940F1087EC90E00197F1F700C000007C
:10208000089540E10C943010909381018093800179
:102090000895E0918001F0918101309721F0019045
:1020A000F081E02D099480E00895E0918001F091A5
:1020B0008101309721F00280F381E02D0994089589
:1020C000E0918001F0918101309721F00480F58149
:1020D000E02D0994089520917E0130917F01281709
:1020E000390771F090937F0180937E01E091800128
:1020F000F0918101309721F00680F781E02D09945D
:10210000089520917C0130917D012817390771F0E5
:1021100090937D0180937C01E0918001F091810199
:10212000309721F00084F185E02D099408950895F9
:102130000C94971081E008950E94801D85B78068F7
:1021400085BF85B7806885BF0E94BE080E943A1E81
:102150000E9480210C948A0CBF92CF92DF92EF9262
:10216000FF920F931F93CF93DF93CDB7DEB72A97DC
:102170000FB6F894DEBF0FBECDBF0E9406090E94C5
:102180009A10811111C08FEF89838A831B820E946C
:10219000891D8160782F9D838C8349815A816B8151
:1021A0008D810E94551154C083E8C82E81E0D82E3D
:1021B00000E010E0B02E802F0E94B009E82EF6015A
:1021C00021916F01F82EF22631F40F5F1F4F083076
:1021D000110581F7D8CF8091190281FD0E94B609BF
:1021E00080E090E02F2D30E0482FB901082E02C08A
:1021F000759567950A94E2F760FF25C08E83BF82CC
:1022000081E090E06C0102C0CC0CDD1C4A95E2F745
:102210002E2D30E02C213D21232B09F480E08887EE
:102220000E94891D8160782F9A8789874E815F81FE
:1022300068858A850E945511F801ED57FE4F80810F
:102240008C25808305C001968830910569F6BDCF45
:102250000E94DD200E944910909182018917A9F007
:102260000E944910809382012A960FB6F894DEBF2F
:102270000FBECDBFDF91CF911F910F91FF90EF90D7
:10228000DF90CF90BF900C946B032A960FB6F89412
:10229000DEBF0FBECDBFDF91CF911F910F91FF9099
:1022A000EF90DF90CF90BF900895CF93DF93CDB79D
:1022B000DEB72B970FB6F894DEBF0FBECDBF4F83AE
:1022C000588769877A878B87DE01119686E0FD0142
:1022D00011928A95E9F785E0FE01379601900D92FB
:1022E0008A95E1F749815A816B817C818D819E813C
:1022F0000E948E182B960FB6F894DEBF0FBECDBF8E
:10230000DF91CF910895FC01808191810E945D1B36
:102310000895882309F4F8C08238C1F40E94491056
:1023200081FDF2C069E380910D0190910E010E9440
:10233000DD1C0E94BC1B2FEF81EE94E021508040F9
:102340009040E1F700C0000069E319C08338F9F458
:102350000E94491080FDD8C063E580910D019091E5
:102360000E010E94DD1C0E94BC1B2FEF81EE94E049
:10237000215080409040E1F700C0000063E580916B
:102380000D0190910E010E94E81C0C94BC1B843836
:10239000C1F40E94491082FDB7C067E480910D012D
:1023A00090910E010E94DD1C0E94BC1B2FEF81EE5C
:1023B00094E0215080409040E1F700C0000067E4C5
:1023C000DECF9CEF980F913A40F4682F80910D0179
:1023D00090910E010E94DD1CD8CF90E2980F9830AA
:1023E00050F4877091E001C0990F8A95EAF7892F20
:1023F0000E94F21BCACF9BE5980F933070F4853A88
:1024000029F0863A31F083E890E005C081E890E059
:1024100002C082E890E00C946B1098E5980F95311B
:1024200008F06EC0883A61F1893A69F18A3A71F12F
:102430008B3A79F18C3A81F18B3B89F18C3B91F1AC
:102440008D3A99F1803BA1F18E3AA9F18F3AB1F121
:10245000813BB9F1823BC1F1833BC9F1843BD1F1AE
:10246000853BD9F1863BE1F1873BE9F1883BF1F10E
:10247000893BF9F18A3B09F43FC080E090E03EC01F
:1024800082EE90E03BC089EE90E038C08AEE90E0AA
:1024900035C085EB90E032C086EB90E02FC083EB37
:1024A00090E02CC084EB90E029C087EB90E026C040
:1024B0008CEC90E023C08DEC90E020C083E891E0AC
:1024C0001DC08AE891E01AC082E991E017C084E952
:1024D00091E014C081E292E011C083E292E00EC06C
:1024E00084E292E00BC085E292E008C086E292E0CE
:1024F00005C087E292E002C08AE292E00C9481106B
:10250000803F10F00C94E51F0895882309F462C001
:10251000823879F40E94491081FF5CC069E38091A0
:102520000D0190910E010E94DD1C0E94BC1B69E30D
:1025300010C08338B1F40E94491080FF4BC063E59E
:1025400080910D0190910E010E94DD1C0E94BC1B28
:1025500063E580910D0190910E010E94E81C0C949E
:10256000BC1B843879F40E94491082FF33C067E4B1
:1025700080910D0190910E010E94DD1C0E94BC1BF8
:1025800067E4E7CF9CEF980F913A10F4682FE1CF02
:1025900090E2980F983050F4877091E001C0990F45
:1025A0008A95EAF7892F0E94F81BD9CF9BE5980FEF
:1025B000933020F480E090E00C946B1098E5980F35
:1025C000953120F480E090E00C948110803F10F071
:1025D0000C944D200895882321F00E94F21B0C9446
:1025E000BC1B0895882321F00E94F81B0C94BC1B8F
:1025F00008958F929F92AF92BF92DF92EF92FF92D7
:102600000F931F93CF93DF937C01D62FC72FFC012D
:10261000058102950F70128111110E940F1C0E94FA
:10262000B51B882379F0112369F080E28D0F883083
:1026300048F082E00E949E1B0E94B51B91E0D82EBC
:10264000D92601C0D12CBC2EB2948FE0B8228B2D9C
:1026500090E0FC01E859FF4F0C94052D8C2F807FF2
:10266000CF70882311F0C295C07F112399F0CC233D
:1026700009F4C4C180E28D0F883010F0D11104C07C
:102680008C2F0E94F21B03C08C2F0E94021C0E9400
:10269000BC1BB4C18D2F0E948512CC2309F4F4C158
:1026A00080E28D0F883010F0D11104C08C2F0E9471
:1026B000F81B03C08C2F0E94081C0E94BC1BE4C1A5
:1026C0008C2F807FCF70803211F0C295C07FDD23C8
:1026D00019F0D130C9F022C0112371F0002341F06C
:1026E000013031F40E94281C8C2B0E94221CCCC18A
:1026F0000E94281C8C2B3AC1002319F0013009F4E8
:10270000C3C10E94251C18C0112321F0063008F017
:10271000BBC10EC0053008F0B7C10EC0112351F087
:10272000002331F0F701858180FF68C18F708583B8
:102730008C2F1CC1011173C18C2F1EC18C2F86954B
:102740008695837019F0813061F09EC1112321F0CC
:102750008D2F9C2F937002C080E090E00E946B1040
:10276000A0C1112321F08D2F9C2F937002C080E017
:1027700090E00E94811095C11123F9F0D53F51F0EE
:10278000D63F71F0D43FA9F4809164029091650224
:1027900081600BC08091640290916502826005C0E7
:1027A00080916402909165028460909365028093A9
:1027B00064028D2F0E94E51F1EC0D53F51F0D63F09
:1027C00071F0D43FA9F480916402909165028E7FEC
:1027D0000BC080916402909165028D7F05C080914D
:1027E0006402909165028B7F9093650280936402EE
:1027F0008D2F0E944D200E94D22053C18C2F8370B8
:1028000009F04CC0111149C12D2F22952695277032
:10281000220F220F6D2F6F70862F90E0A0E0B0E0A6
:102820004C015D01022E04C0880C991CAA1CBB1C23
:102830000A94D2F7D4FF12C08FE090E0A0E0B0E09D
:1028400004C0880F991FAA1FBB1F2A95D2F7BC018D
:10285000CD01609570958095909503C060E070E023
:10286000CB01C695C695C370C23051F080F468297B
:1028700079298A299B29C13071F00E94DD190DC187
:10288000682979298A299B290E94EF1906C10E948B
:10289000DD19C501B4010E94CB19FFC0112319F045
:1028A0008C2F817001C08695882309F4F6C02D2FE6
:1028B000229526952770220F220F6D2F6F70862F7D
:1028C00090E0A0E0B0E04C015D01022E04C0880C55
:1028D000991CAA1CBB1C0A94D2F7D4FF12C08FE02B
:1028E00090E0A0E0B0E004C0880F991FAA1FBB1FB2
:1028F0002A95D2F7BC01CD01609570958095909591
:1029000003C060E070E0CB01C695C695C370C230CD
:1029100051F080F4682979298A299B29C13071F006
:102920000E94A21ABAC0682979298A299B290E9483
:10293000B41AB3C00E94A21AC501B4010E94901A31
:10294000ACC08D2F90E0FC01E05EF109E531F105AE
:1029500008F050C0E858FF4F0C94052DDF708C2F05
:102960008F71112331F00E94291A8D2F0E94EB12D2
:102970008BC00E944A1A8D2F0E94F21285C011232B
:1029800041F0053008F080C08C2F8F710E946F1AC3
:102990007BC0063008F078C0F7CF112339F08C2FB8
:1029A0008F710E94291A70C01123C9F38C2F8F7167
:1029B0000E944A1A69C0112329F08C2F8F710E943E
:1029C000141A62C00E940F1A5FC0112349F0CF7120
:1029D0008C2F0E94291A63E08C2F0E94951B54C0F3
:1029E00081E00E949E1B023008F44EC082E00E94EB
:1029F0009E1B4AC0112331F0002389F28D2F0E94C3
:102A0000891142C0002391F2D93349F4FFEF27EE38
:102A100083E0F15020408040E1F700C000008D2F9E
:102A20000E94851231C04C2F4F706D2FC7010E943C
:102A30001C060E943C1935C0111133C0CF70C23042
:102A400091F038F4CC2361F0C130F1F40E94BA2146
:102A500028C0C43071F050F0C530B1F480E00AC035
:102A60000E949D211EC00E94D6211BC00E94F02101
:102A700018C084E00E94132214C04C2F4F706D2F99
:102A8000C7010E941F060DC098E0B91631F0B916B3
:102A900040F086EF8B0D823020F40E9449100E9496
:102AA0006B03DD20E1F00E94911B80FD18C0F7014F
:102AB00012820E948B1B0E94291AC7010E947B155B
:102AC0000E948B1BDF91CF911F910F91FF90EF9090
:102AD000DF90BF90AF909F908F900C944A1ADF9137
:102AE000CF911F910F91FF90EF90DF90BF90AF902B
:102AF0009F908F9008950F931F93CF93DF93EC01D6
:102B0000988189812B813C81232B31F08F3F31F4D7
:102B100081E09F3F19F403C081E001C080E080FDA7
:102B200013C0CE010E948303882371F068817981EC
:102B30008A810E94681B8C010E94C61A0E94B919E2
:102B4000B801CE010E94F912DF91CF911F910F9130
:102B500008950E940F1C0E941F1C80910D019091EE
:102B60000E010E94F31C0E94BC1B0E9474210E9453
:102B7000D22080E090E00E946B1080E090E00C9406
:102B800081100E94FF1B0C94A9150E945D1BE92F68
:102B9000E295EF704E2F50E0FA013297EE30F105DA
:102BA000B0F4E357FF4F0C94052D803F91F018F4DB
:102BB000803E68F40EC0843F51F40BC0803E48F064
:102BC000813F29F406C093FB882780F9089580E0AF
:102BD000089581E00895CF93DF9300D000D01F9235
:102BE000CDB7DEB70F900F900F900F900F90DF9141
:102BF000CF910895CF93DF9300D000D000D0CDB710
:102C0000DEB726960FB6F894DEBF0FBECDBFDF91BC
:102C1000CF9108951F93CF93DF93C0918C0116E05D
:102C200080918D01C81799F0D0E01C9FF0011D9F85
:102C3000F00D1124E257FE4F408151816281738172
:102C4000848195810E94FA152196C770E9CFDF91A2
:102C5000CF911F9108954091BE015091BF016091A5
:102C6000C0017091C1018091C2019091C3010C9487
:102C7000FA15CF938091C30182958F7009F05FC0E0
:102C80008091C001882309F45AC080918C01B091D1
:102C90008D017091BE01A091BF014091C101509181
:102CA000C20191E07F3F09F090E0692FC6E08B17E9
:102CB00009F445C04115510521F0AF3F21F020E056
:102CC00003C021E001C0262F90E020FD35C0C89F41
:102CD000F001C99FF00D1124E257FE4F21812A1304
:102CE0002BC02081271328C02281211125C02381D8
:102CF00034812417350710F421503109241B350B7A
:102D0000283C3105C8F42091C3012F702061209325
:102D1000C30126E0289FF001299FF00D1124ED56F4
:102D2000FE4F80818F70806180838EEB91E00E94E6
:102D30007B15CF910C940A1601968770B8CFCF916E
:102D40000895AF92BF92CF92DF92EF92FF920F93CE
:102D50001F93CF93DF93CDB7DEB761970FB6F8948B
:102D6000DEBF0FBECDBF8C0185E0F801DE011D96F0
:102D700001900D928A95E1F7D8014C9111965C91E2
:102D800011971296EC903091BE016091BF01809135
:102D9000C1019091C201009731F06F3F31F421E001
:102DA0003F3F19F403C021E001C020E0B22FB17011
:102DB000BB2E20FD60C1F801C380D480A090C0016B
:102DC000AA2009F4EEC02091C301C816D90628F044
:102DD000D601A81BB90BCD0104C0809590958C0D30
:102DE0009D1DFF24F394883C910580F0F12C207FF9
:102DF00009F09CC07C2DD98AC88A6E2D89890E94D1
:102E0000EB158EEB91E00E947B152DC1822F807F08
:102E100009F054C0561314C0431312C0FE2CE11025
:102E20000FC02F7020612093C3010E942B168EEBE0
:102E300091E00E947B158091C301F80185835CC1FC
:102E4000CD2831F05F3F31F481E04F3F19F403C0EA
:102E500081E001C080E080FD03C081E08E2502C0DA
:102E600080E090E0F82FF170FF2E80FF1CC0809171
:102E70008C0120918D0136E0821709F41AC190E08F
:102E8000389FF001399FF00D1124E257FE4F618108
:102E9000561306C06081461303C06281E61203C068
:102EA00001968770E9CFFE2CEE2009F425C18091B0
:102EB000C30181608093C301F12C1EC1561309C068
:102EC000431307C0E11005C08091C301F801858359
:102ED000A4C04D875E878D859E850E94C515882379
:102EE00079F1EE2069F12091C301822F82958F70D4
:102EF00090E0029774F08091BE019091BF01988795
:102F00008F831986DB86CA862C87CE0107960E949E
:102F10007B1586E0F801AEEBB1E001900D928A9549
:102F2000E1F70E9439160E942B160DC0561771F05A
:102F30004D875E878D859E850E94C51581111AC0BB
:102F4000C8010E947B15FF24F394D6C04313F0CF31
:102F5000E110EECF8091C301F8018583C8010E9482
:102F60007B1586E0EEEBF1E0DF011D928A95E9F733
:102F7000FA2CC2C0EE2021F32091C301822F82954A
:102F80008F7090E002972CF28091BE019091BF016A
:102F90009A8389831B82DD82CC822E83CE010196A7
:102FA000B6CFC816D90628F0F601E81BF90BCF01F9
:102FB00004C0809590958C0D9D1D883C910548F02E
:102FC000F12C7C2DD98AC88A6E2D89890E94EB1537
:102FD0004AC0FE2CEE2009F4B3CF561333C043137E
:102FE00031C02091C30120FD24C0822F82958F70B3
:102FF000482F50E041155105E1F0D80115962C936A
:1030000015974F30510549F08F5F982F9295907F1B
:10301000822F8F70892B15968C93C8010E947B1587
:1030200086E0F801AEEBB1E001900D928A95E1F7F0
:103030003DC086E0F801AEEBB1E001900D928A95BB
:10304000E1F75AC04D875E878D859E850E94C51524
:1030500081115FCF8091C30181608093C301C8015A
:103060000E947B1549C0EEEBF1E086E0DF011D9286
:103070008A95E9F71BC0EE2009F462CF4D875E8781
:103080008D859E850E94C515F82E882309F458CF9A
:1030900086E0F801AEEBB1E001900D928A95E1F780
:1030A0008EEB91E00E9483110E9439160E942B162C
:1030B00023C04D875E878D859E850E945D1B292FCD
:1030C00022952F70223028F49F7039F0811105C0AD
:1030D0000BC0243028F49F7049F4805E883020F0C3
:1030E000C8010E947B15BF2CFB2C06C0D801159689
:1030F0009C91907F91F7F8CF8F2D61960FB6F89441
:10310000DEBF0FBECDBFDF91CF911F910F91FF901A
:10311000EF90DF90CF90BF90AF9008951F93CF9323
:10312000DF93CDB7DEB72C970FB6F894DEBF0FBE96
:10313000CDBF4F83588769877A878B879C87CE015D
:1031400007960E94A1168823D1F09F8188852A8541
:103150003B85232B31F08F3F31F481E09F3F19F401
:1031600003C081E001C080E080FD47C04F815885E9
:1031700069857A858B859C850E94FA153EC086E01C
:10318000FE013796DE01119601900D928A95E1F7C6
:10319000FF81E8856A857B856115710531F0EF3F18
:1031A00031F481E0FF3F19F403C081E001C080E009
:1031B00080FD23C020918D0130E0C9010196877008
:1031C000992740918C0150E084179507F1F1F9831C
:1031D000EA837D836C8396E0929FD001939FB00D2C
:1031E0001124A257BE4FFE01319601900D929A957F
:1031F000E1F780938D010E940A1616E080918C0100
:1032000090918D01891771F1189FC0011124825787
:103210009E4F0E94A116882329F1E0918C011E9FE8
:10322000F0011124E257FE4F408151816281738188
:10323000848195810E94FA1580918C0190E001961D
:103240008770992780938C01D9CF0E94C115109265
:103250008D0110928C01EEEBF1E086E0DF011D9212
:103260008A95E9F72C960FB6F894DEBF0FBECDBF56
:10327000DF91CF911F910895EF92FF920F931F93CB
:10328000CF93DF938C01892B09F46CC0F12CEE24D1
:10329000E394E8012196F8018491843740F4843066
:1032A00008F051C0813081F0823019F15BC0853760
:1032B00009F444C0A8F19CE7980F903708F052C079
:1032C0008F770E94851241C00E5F1F4FFE018491CF
:1032D00090E2980F983050F48770FE2D01C0FF0FD8
:1032E0008A95EAF78F2F0E94121C14C00E94891140
:1032F0002DC00E5F1F4FFE01849190E2980F983011
:1033000060F48770FE2D01C0FF0F8A95EAF78F2FBA
:103310000E94181C0E94BC1B19C00E94851216C076
:103320000E5F1F4FFE01C491CC2381F08FE99FE017
:103330000197F1F700C00000C150F6CF0E5F1F4F9C
:10334000FE01F49003C00E9489118E018F2D882305
:1033500009F49FCFEFE9FFE03197F1F700C00000DB
:103360008150F5CFDF91CF911F910F91FF90EF909A
:103370000895089508950C94BA190E94BB1960939A
:10338000F0017093F1018093F2019093F3010C949A
:10339000A9150C94BD190F931F930091F001109182
:1033A000F1012091F2013091F301602B712B822BFE
:1033B000932B1F910F910C94BD190F931F930091A4
:1033C000F0011091F1012091F2013091F30160239D
:1033D0007123822393231F910F910C94BD190F9396
:1033E0001F930091F0011091F1012091F2013091B1
:1033F000F30160277127822793271F910F910C9467
:10340000BD190C94BA190E94011A6093EC017093D3
:10341000ED018093EE019093EF010C94A91560E00B
:1034200070E0CB010C94031A0F931F9341E050E01E
:1034300060E070E08A019B0104C0000F111F221F91
:10344000331F8A95D2F7C901B8011F910F910C94CF
:10345000031A0F931F9341E050E060E070E004C056
:10346000440F551F661F771F8A95D2F78091EC0194
:103470009091ED01A091EE01B091EF018A019B01C5
:10348000082B192B2A2B3B2BC901B8011F910F9137
:103490000C94031A0F931F9341E050E060E070E03A
:1034A00004C0440F551F661F771F8A95D2F74095B9
:1034B0005095609570958091EC019091ED01A091EF
:1034C000EE01B091EF018A019B01082319232A2301
:1034D0003B23C901B8011F910F910C94031A0F935C
:1034E0001F9341E050E060E070E004C0440F551FBE
:1034F000661F771F8A95D2F78091EC019091ED01BC
:10350000A091EE01B091EF018A019B0108271927D4
:103510002A273B27C901B8011F910F910C94031A68
:103520000F931F930091EC011091ED012091EE019A
:103530003091EF01602B712B822B932B1F910F91F8
:103540000C94031A0F931F930091EC011091ED015D
:103550002091EE013091EF016023712382239323A8
:103560001F910F910C94031A0F931F930091EC017C
:103570001091ED012091EE013091EF01602771274C
:10358000822793271F910F910C94031A089528E026
:10359000929F800D1124E82FE695E695E6958770B9
:1035A00051E001C0550F8A95EAF785E0E89FF001E8
:1035B0001124EC53FE4F20E030E070E04081CB015D
:1035C000022E02C0969587950A94E2F78170819544
:1035D00084278523842781932F5F3F4F2530310532
:1035E00069F7089528E0929F800D1124682F669551
:1035F00066956695982F977085E0689FB0011124B5
:1036000040E050E080E0FB01E40FF51FEC53FE4F7B
:10361000208130E0092E02C0369527950A94E2F702
:1036200021703327042E01C0220F0A94EAF7822B5F
:103630004F5F5F4F4530510531F70895CF92DF92CC
:10364000EF92FF920F931F93CF93DF938C01C09063
:10365000EC01D090ED01E090EE01F090EF0180914F
:10366000F0019091F101A091F201B091F301C82A0B
:10367000D92AEA2AFB2ACFE1D0E0D701C6010C2ED5
:1036800004C0B695A795979587950A94D2F780FDC3
:1036900004C0219790F780E007C0B8018C2F0E94EA
:1036A0003D060197B1F38C2FDF91CF911F910F91C0
:1036B000FF90EF90DF90CF900895CF93DF93EC01D0
:1036C0000E941E1BBE010E943D06DF91CF9108950E
:1036D0001F93CF93DF93EB0190918B01992321F0FE
:1036E000CB010E945D1B13C0882349F0CB010E94CF
:1036F0001E1B182F682FCE010E94C71A04C0CB01D1
:103700000E94F21A182FBE01812F0E943D06DF9100
:10371000CF911F9108958091F401859585958595A8
:1037200008958091F4018770089598E0899F900131
:103730001124262B2093F4010C94291A2091F401D2
:10374000809582238093F401982F977069F430E07C
:10375000482F082E000C550B2417350729F08595A6
:10376000859585950C944A1A08959091F401977067
:1037700081E009F480E00895E0910D01F0910E01DF
:10378000809118028083E0910D01F0910E019081EB
:1037900080911702892B8083E0910D01F0910E0139
:1037A000908180911602892B80838091F501882376
:1037B00081F0E0910D01F0910E019081892B8083C1
:1037C00080910D0190910E010E94801C8111109238
:1037D000F50180910D0190910E010C94551080918E
:1037E0001802089590911802892B80931802089569
:1037F0008095909118028923809318020895109261
:103800001802089590911702892B8093170208954A
:103810008095909117028923809317020895109242
:103820001702089590911602892B8093160208952D
:103830008095909116028923809316020895109224
:10384000160208958093F50108951092F5010895E8
:103850008091F50108956DEE7EEF80E090E00E948A
:10386000642D60E082E090E00E94462D60E083E0FD
:1038700090E00E94462D60E084E090E00E94462D9A
:1038800060E085E090E00E94462D60E086E090E0F8
:103890000E94462D40E050E0BA0188E090E00C9490
:1038A000582D80E090E00E94402D21E08D3E9E4FFB
:1038B00009F020E0822F089582E090E00C94322DF0
:1038C000682F82E090E00C94462D83E090E00C9409
:1038D000322D682F83E090E00C94462D84E090E038
:1038E0000C94322D682F84E090E00C94462D86E0F5
:1038F00090E00C94322D682F86E090E00C94462DD9
:10390000FC0131969C01205E3F4F80E09191911126
:103910008F5FE217F307D1F708959C01FC013296FF
:103920009FEF80E04191461789F09F3F19F44111C4
:1039300001C0982F8F5F8E31A9F79F3F39F0F901B1
:10394000E90FF11D97FDFA956283089508959C0192
:10395000225E3F4FFC014281461301C01282019654
:1039600082179307B9F70895262F26952695269551
:103970002F3169F0FC01E20FF11D677021E030E0AA
:1039800001C0220F6A95EAF78181282B21830895CF
:10399000262F2695269526952F3171F0FC01E20FF2
:1039A000F11D677021E030E001C0220F6A95EAF74F
:1039B0002095818128232183089520911F012223AE
:1039C00029F020916A0227FD0C94B41C0C948D1CE4
:1039D00020911F01222329F020916A0227FD0C94D7
:1039E000C81C0C94A71CFC01319680961192E81714
:1039F000F907E1F7089508950C94FB1C0C94FB1C47
:103A0000CF930E94FE1C0E9406090E94FC1CC0E08D
:103A10008C2F0E94B009811104C0CF5FC830C1F75C
:103A200001C081E0CF9108950C94FB1C0C94141DEF
:103A30000E94161D80917102843061F110921A0269
:103A400020E488E190E00FB6F894A8958093600098
:103A50000FBE2093600080E00E94FA0280E00E9486
:103A60006B030E94161D83B7817F846083BF83B779
:103A7000816083BF7894889583B78E7F83BF0FB6AC
:103A8000F894A895809160008861809360001092FE
:103A900060000FBE08950C94FB1C0E94C1150E948B
:103AA00080210E9449100E946B030C944B1D1F92B1
:103AB0000F920FB60F9211248F939F93AF93BF93E2
:103AC00080911A02811113C0809166029091670261
:103AD000A0916802B09169024196A11DB11D809329
:103AE000660290936702A0936802B0936902BF9147
:103AF000AF919F918F910F900FBE0F901F901895CF
:103B000082E084BD93E095BD9AEF97BD80936E00EF
:103B100008952FB7F8948091660290916702A09162
:103B20006802B09169022FBF0895CF92DF92EF92A1
:103B3000FF920F931F932FB7F89440916602509114
:103B4000670260916802709169022FBF6A017B0170
:103B5000EE24FF248C0120E030E0C016D106E206FE
:103B6000F30610F4415051099A01281B390BC90181
:103B70001F910F91FF90EF90DF90CF900895789470
:103B80001F920F920FB60F9211248F939F93AF93B2
:103B9000BF938091660290916702A0916802B091F4
:103BA00069020196A11DB11D809366029093670280
:103BB000A0936802B0936902BF91AF919F918F91DA
:103BC0000F900FBE0F901F90189587E797E790937F
:103BD0000108809300089AE088E10FB6F894A89550
:103BE000809360000FBE90936000FFCFCF92DF9272
:103BF000EF92FF920F931F93CF93C0E0E82EF12C2A
:103C00008C2F0E94B00900E010E0C82ED12CC60114
:103C1000002E02C0959587950A94E2F780FD06C0B4
:103C20000F5F1F4F0830110591F70AC0602F7C2FDE
:103C300080E00E942006E816F90691F781E004C0B2
:103C4000CF5FC830E9F680E0CF911F910F91FF90D0
:103C5000EF90DF90CF900895CF93C82F8CE20E9411
:103C6000F61D882321F08C2FCF910C94F61D80E057
:103C7000CF910895CF930E94511C811102C00E94E0
:103C80002B1CC5E6C15049F00E9406098FE39CE950
:103C90000197F1F700C00000F5CF89E20E942C1EC9
:103CA00081110FC18AE20E942C1E81110E942B1CDF
:103CB00085E00E942C1E81110E94E51D0E945C1C63
:103CC0008093190287E00E942C1E8823A9F18BE1C2
:103CD0000E942C1E882351F08091190281FB22271B
:103CE00020F991E0922790FB81F90EC08EE00E94AE
:103CF0002C1E882361F08091190282FB222720F973
:103D000091E0922790FB82F98093190215C080E11F
:103D10000E942C1E90911902882341F093FB2227C8
:103D200020F981E0822780FB93F904C0892F8095D8
:103D300080FB90F990931902809119020E94601CF7
:103D40000E946E1C90E090936B0280936A0280EE5A
:103D50000E942C1E882341F080916A02982F909532
:103D600090FB80F980936A0289E30E942C1E8823CD
:103D700059F080916A0281FB222720F991E0922775
:103D800090FB81F980936A0282EE0E942C1E8823A8
:103D900059F080916A0282FB222720F991E0922754
:103DA00090FB82F980936A0286EE0E942C1E882383
:103DB00059F080916A0283FB222720F991E0922733
:103DC00090FB83F980936A0283EE0E942C1E882365
:103DD00059F080916A0284FB222720F991E0922712
:103DE00090FB84F980936A0285E30E942C1E88234D
:103DF00059F080916A0285FB222720F991E09227F1
:103E000090FB85F980936A0281E30E942C1E88232F
:103E100059F080916A0286FB222720F991E09227CF
:103E200090FB86F980936A0281E10E942C1E882310
:103E300059F080916A0287FB222720F991E09227AE
:103E400090FB87F980936A0280916A020E94721C3B
:103E500087E20E942C1EC82F8EE10E942C1E811129
:103E6000C2608FE10E942C1E8111C46080E20E941A
:103E70002C1E8111C86081E20E942C1E8111C0613C
:103E800082E20E942C1E8111C06283E20E942C1EDD
:103E90008111C06484E20E942C1E882311F0C06846
:103EA00002C0CC2329F08C2F0E94691C6C2F03C008
:103EB0000E94651C682F70E080E090E0CF910C9428
:103EC000C919CF91089580911D0280FF0BC06091A8
:103ED000120185E0689FB00111247595679575956D
:103EE00067952BC081FF09C06091120185E0689F32
:103EF000B00111247595679520C082FF07C06091BD
:103F0000120185E0689FB001112417C090911E0234
:103F10009923D1F060911101961788F72091120131
:103F200085E0289F90011124929FA001939F500D3E
:103F3000112470E0CA010E94CF2C6038710540F452
:103F40006115710519F406C065E070E0862F0895CB
:103F50008FE7089581E0089580911D0280FF08C0D9
:103F60006091100170E0759567957595679521C012
:103F700081FF06C06091100170E07595679519C0CA
:103F800082FF04C06091100170E010C090911E0289
:103F9000992399F060910F019617A0F78091100175
:103FA000899FC001112470E00E94CF2C60387105F8
:103FB00040F46115710519F406C061E070E0862FC8
:103FC00008958FE7089581E00895803F21F40E94CD
:103FD000631F819504C0813F29F40E94631F809371
:103FE00021020895823F21F40E94631F819504C03D
:103FF000833F29F40E94631F809320020895893F24
:1040000019F40E94AC1F05C08A3F31F40E94AC1F16
:1040100081958093220208958B3F21F40E94AC1F6A
:10402000819504C08C3F29F40E94AC1F8093230229
:104030000895843F21F480911F02816017C0853F5D
:1040400021F480911F02826011C0863F21F480918B
:104050001F0284600BC0873F21F480911F0288609B
:1040600005C0883F31F480911F02806180931F0258
:1040700008958D3F21F480911D0281600BC08E3F19
:1040800021F480911D02826005C08F3F29F4809148
:104090001D02846080931D020895803F39F4809151
:1040A000210287FF6CC01092210269C0813F29F470
:1040B000809121021816BCF362C090912002823FC9
:1040C00029F497FF5CC01092200259C0833F19F475
:1040D0001916CCF354C0893F41F48091220218167E
:1040E0000CF04DC0109222024AC08A3F29F4809100
:1040F000220287FF44C0F6CF8B3F39F48091230220
:1041000087FF3DC0109223023AC08C3F29F4809172
:1041100023021816BCF333C0843F21F480911F02A0
:104120008E7F17C0853F21F480911F028D7F11C0C3
:10413000863F21F480911F028B7F0BC0873F21F4C3
:1041400080911F02877F05C0883F31F480911F0254
:104150008F7E80931F0213C08D3F21F480911D023A
:104160008E7F0BC08E3F21F480911D028D7F05C094
:104170008F3F29F480911D028B7F80931D028091D7
:10418000200281110EC08091210281110AC080910C
:104190002202811106C080912302811102C0109277
:1041A0001E0208958FE192E00E9460100E94891D16
:1041B00090931C0280931B0208951F93CF93DF936B
:1041C00080911B0290911C020E94951DAC01909160
:1041D0001E02992321F02091130130E006C02091A6
:1041E00014018AE0289F900111244217530708F414
:1041F00077C080912002C0912102D09122021091BB
:104200002302811107C0C11167C0D11165C011110E
:1042100063C066C09F3F19F09F5F90931E021816FF
:1042200024F40E94631F809320028091200287FF64
:1042300005C00E94631F8195809320021C1624F400
:104240000E94631F809321028091210287FF05C095
:104250000E94631F819580932102309120023323B5
:10426000C1F0209121022223A1F045EB3403C001CB
:104270001124892F911101C081E08093200235EB38
:104280002303C0011124892F911101C081E0809383
:1042900021021D1624F40E94AC1F809322028091FB
:1042A000220287FF05C00E94AC1F819580932202E5
:1042B000111624F40E94AC1F8093230280912302E4
:1042C00087FF05C00E94AC1F819580932302DF9178
:1042D000CF911F910C94D2209F3F09F09DCFAECF7C
:1042E000DF91CF911F910895EFE1F2E085E0DF01CA
:1042F0001D928A95E9F710921E0210921D020895F0
:104300000E94511C811102C00E942B1C0E94771C2C
:1043100080936C02282F269530E02530310524F05B
:104320008170886080936C0280916C0280FF02C073
:10433000869501C080E00C94FA0220916C02822FD5
:104340008695482F50E04430510544F48F5F982FF4
:10435000990F822F8170892B80936C0280916C025F
:10436000816080936C020E947B1C80916C02869518
:104370000C94FA0280916C02982F969591F09158C6
:10438000990F8170892B80936C028E7F91E009F4E4
:1043900090E080916C0290FB80F980936C020E9407
:1043A0007B1C80916C0286950C94FA0280916C02C1
:1043B000982F909590FB80F980936C02813019F4CE
:1043C00083E080936C0280916C020E947B1C809140
:1043D0006C0280FF02C0869501C080E00C94FA0256
:1043E00090916C02892F86958F5F8F7791708530C1
:1043F00028F4880F892B80936C0202C090936C0282
:1044000080916C028E7F91E009F490E080916C02C3
:1044100090FB80F980936C020E947B1C80916C025F
:1044200086950C94FA02853008F084E0880F90910C
:104430006C029170892B80936C028E7F91E009F45D
:1044400090E080916C0290FB80F980936C020E9456
:104450007B1C80916C0286950C94FA028091440238
:1044600008950F931F93CF93DF9300D01F92CDB782
:10447000DEB78C010E94A724823011F0843019F538
:1044800083E089831B830A838093E9008FEF9091F7
:10449000E800815095FD06C095ED9A95F1F7000072
:1044A0008111F5CF8091E80085FF0DC040E050E01C
:1044B00063E070E0CE0101960E94C4248091E80080
:1044C0008E778093E8000F900F900F90DF91CF913F
:1044D0001F910F910895CF93DF9300D01F92CDB716
:1044E000DEB720917102243031F522E02983805813
:1044F00091099B838A8383E08093E9008FEF9091F9
:10450000E800815095FD06C095ED9A95F1F7000001
:104510008111F5CF8091E80085FF0DC040E050E0AB
:1045200063E070E0CE0101960E94C4248091E8000F
:104530008E778093E8000F900F900F90DF91CF91CE
:104540000895CF93DF93EC010E94A724823011F0ED
:104550008430F9F482E08093E9008FEF9091E800D5
:10456000815095FD06C095ED9A95F1F700008111F7
:10457000F5CF8091E80085FF0CC040E050E065E099
:1045800070E0CE010E94C4248091E8008E77809371
:10459000E800DF91CF910895CF93DF93EC010E9463
:1045A000A724823019F0843009F047C080911F01A0
:1045B0008823E1F080916A0287FF18C084E080932D
:1045C000E9008FEF9091E800815095FD06C095E1DC
:1045D0009A95F1F700008111F5CF8091E80085FFF1
:1045E0002CC040E050E060E270E017C081E08093B2
:1045F000E9008FEF9091E800815095FD06C095EDA0
:104600009A95F1F700008111F5CF8091E80085FFC0
:1046100014C040E050E068E070E0CE010E94C42485
:104620008091E8008E778093E80080E2FE01A4E2AA
:10463000B2E001900D928A95E1F7DF91CF91089554
:1046400080917002811109C00E9455260E94B226F5
:104650008091E20084608093E200089510927002DD
:104660000895089508950C944D1D42E061EC81E099
:104670000E94CE2542E061EC82E00E94CE2542E01D
:1046800061EC83E00E94CE2542E261EC84E00C9470
:10469000CE2580917302833009F455C030F4813007
:1046A00071F0823009F48EC008958A3009F47AC01E
:1046B0008B3009F460C0893009F09CC020C0809123
:1046C0007202813A09F096C08091E800877F80935A
:1046D000E8008091760290917702892B21F460E2C4
:1046E00084E292E003C060E080E090E070E00E942D
:1046F0000F258091E8008B778093E80008958091E2
:104700007202813209F076C0809176029091770230
:10471000009719F0039709F06DC08091E800877F3A
:104720008093E8008091E80082FD05C080917102CD
:104730008111F8CF5FC08091F10080934402809195
:10474000E8008B7753C080917202813A09F052C021
:104750008091760290917702892B09F04BC080916D
:10476000E800877F8093E8008091E80080FFFCCF1D
:1047700080911F0136C0809172028132D9F58091FB
:10478000760290917702892BA9F58091E800877FC6
:104790008093E8000E9403268091740280931F0199
:1047A0000C94C11580917202813221F58091E8004C
:1047B000877F8093E8000E94032680917502809392
:1047C0004502089580917202813AA1F48091E80037
:1047D000877F8093E8008091E80080FFFCCF809184
:1047E00045028093F1008091E8008E778093E80085
:1047F0000C940326089584B7877F84BF0FB6F8947E
:10480000A89580916000886180936000109260009C
:104810000FBE80E880936100109261000E949810A2
:104820000E9455260E94B2268091E2008460809307
:10483000E20078940E9447290E949C1085E191E053
:104840000E94441080917102853069F40E94181D05
:1048500080916F028823B1F30E94001D882391F399
:104860000E94AE24EFCF0E94AC100E94CF0FEACF7F
:104870000C943A24292F332723303105C9F060F4F2
:104880002130310581F02230310509F047C08DE635
:1048900090E026ED33E046C02132310511F122329D
:1048A000310561F13BC082E190E023E434E03AC09D
:1048B00099278130910561F040F08230910559F0DF
:1048C000039761F5ECEAF3E008C0E2EDF3E005C020
:1048D000E4ECF3E002C0E2EBF3E0849190E09F01AE
:1048E00021C064307105D0F4660F771FFB01E45CD2
:1048F000FE4F2081318189E090E014C06430710561
:1049000068F4FB01EE0FFF1FEC5CFE4F208131814C
:10491000FB01E05DFE4F808190E004C080E090E00C
:1049200020E030E0FA013183208308950895CF9389
:10493000C82F0E949624C0934602CF91089580917B
:104940007102843011F081E0089582E00895809131
:104950004602811102C00C949F24089580E189BD14
:1049600082E189BD09B400FEFDCF8091D8008F7D22
:104970008093D8008091E00082608093E000809175
:10498000E00081FDFCCF0895CF92DF92EF92FF927D
:104990000F931F93CF93DF93EC018B017A010E9459
:1049A0002226811133C0E114F10439F0F70180812E
:1049B0009181081B190BC80FD91FC12CD12C0115CF
:1049C000110519F18091E80085FD16C08091E8007D
:1049D0008E778093E800E114F10449F0F7018081BB
:1049E0009181C80ED91ED182C08285E00FC00E947D
:1049F0002226882321F30AC089918093F100015077
:104A00001109FFEFCF1ADF0ADACF80E0DF91CF91F3
:104A10001F910F91FF90EF90DF90CF90089520911C
:104A20007802309179022617370748F06115710531
:104A300039F42091E8002E772093E80001C0B901F5
:104A4000FC0120E06115710579F1809171028823E4
:104A5000F1F18530F1F18091E80083FD3CC0809157
:104A6000E80082FD2EC08091E80080FFEBCF20910E
:104A7000F3008091F20090E0922B6115710551F0E6
:104A80008830910538F421912093F100615071092B
:104A90000196F3CF21E0089709F020E08091E8002B
:104AA0008E778093E800CECF2111CFCF0AC08091BE
:104AB0007102882361F0853061F08091E80083FD08
:104AC0000AC08091E80082FFF2CF80E0089582E082
:104AD000089583E0089581E008952091780230914F
:104AE00079022617370748F06115710539F42091CE
:104AF000E8002E772093E80001C0B901FC0120E016
:104B00006115710591F180917102882309F440C00B
:104B1000853009F43FC08091E80083FD3DC080915D
:104B2000E80082FD2FC08091E80080FFE9CF20914E
:104B3000F3008091F20090E0922B6115710559F01D
:104B40008830910540F424912093F1003196615012
:104B500071090196F2CF21E0089709F020E08091D9
:104B6000E8008E778093E800CBCF2111CCCF0AC02C
:104B700080917102882361F0853061F08091E800B6
:104B800083FD0AC08091E80082FFF2CF80E00895A3
:104B900082E0089583E0089581E00895982F97308A
:104BA00068F59093E900981739F07091EC00209126
:104BB000ED005091F00003C0242F762F50E021FD2E
:104BC00002C09F5FECCF3091EB003E7F3093EB0053
:104BD0003091ED003D7F3093ED003091EB0031607E
:104BE0003093EB007093EC002093ED005093F000B5
:104BF0002091EE0027FDE5CF80E008958F7080932F
:104C0000E90081E008958091720287FF11C08091D0
:104C1000E80082FD05C0809171028111F8CF11C0BA
:104C20008091E8008B770BC080917102882349F056
:104C30008091E80080FFF8CF8091E8008E77809324
:104C4000E80008952091E4003091E50095E6409158
:104C5000EC00842F817040FF23C08091E80080FD2C
:104C60001DC080917102882399F0853099F0809160
:104C7000EB0085FD11C04091E4005091E500241740
:104C8000350729F3915011F09A01E1CF84E008959E
:104C900082E0089583E0089581E0089580E008951A
:104CA0004091E80042FFDDCF08950E94C3260E9494
:104CB000CB26E0EEF0E0808181608083E8EDF0E0DB
:104CC00080818F77808319BCA7EDB0E08C918E7FB7
:104CD0008C9380818F7E80831092700208950F9351
:104CE0001F93CF93DF930E94C3260E94CB26C8ED6B
:104CF000D0E088818F7788838881806888838881E5
:104D00008F7D888319BC1092710210926D021092EF
:104D10006F0210926E0200EE10E0F80180818B7F2E
:104D2000808388818160888342E060E080E00E9427
:104D3000CE25E1EEF0E080818E7F8083E2EEF0E030
:104D4000808181608083808188608083F801808198
:104D50008E7F8083888180618883DF91CF911F91CE
:104D60000F910895E8EDF0E080818F7E8083E7ED7C
:104D7000F0E080818160808384E082BF81E0809365
:104D800070020C946F26E8EDF0E080818E7F8083C6
:104D90001092E20008951092DA001092E100089556
:104DA0001F920F920FB60F9211242F933F934F93A0
:104DB0005F936F937F938F939F93AF93BF93EF9383
:104DC000FF938091E10082FF0BC08091E20082FF9F
:104DD00007C08091E1008B7F8093E1000E9446290B
:104DE0008091DA0080FF1FC08091D80080FF1BC037
:104DF0008091DA008E7F8093DA008091D90080FF65
:104E00000DC080E189BD82E189BD09B400FEFDCFFE
:104E100081E0809371020E94202305C019BC10928A
:104E200071020E942E238091E10080FF19C08091C1
:104E3000E20080FF15C08091E2008E7F8093E20047
:104E40008091E20080618093E2008091D8008062CE
:104E50008093D80019BC85E0809371020E943223B0
:104E60008091E10084FF30C08091E20084FF2CC07B
:104E700080E189BD82E189BD09B400FEFDCF80914A
:104E8000D8008F7D8093D8008091E1008F7E809341
:104E9000E1008091E2008F7E8093E2008091E20049
:104EA00081608093E20080916D02882311F084E09C
:104EB00007C08091E30087FD02C081E001C083E06C
:104EC000809371020E9433238091E10083FF29C007
:104ED0008091E20083FF25C08091E100877F80936D
:104EE000E10082E08093710210926D028091E100F6
:104EF0008E7F8093E1008091E2008E7F8093E200BC
:104F00008091E20080618093E20042E060E080E016
:104F10000E94CE258091F00088608093F0000E946E
:104F20003123FF91EF91BF91AF919F918F917F912D
:104F30006F915F914F913F912F910F900FBE0F9006
:104F40001F9018951F920F920FB60F9211242F9356
:104F50003F934F935F936F937F938F939F93AF9301
:104F6000BF93CF93DF93EF93FF93C091E900CF708E
:104F70008091EC00D82FD17080FDD0E81092E9002C
:104F80008091F000877F8093F00078940E94E6275C
:104F90001092E9008091F00088608093F000CD2BA2
:104FA000CF70C093E900FF91EF91DF91CF91BF9156
:104FB000AF919F918F917F916F915F914F913F91B1
:104FC0002F910F900FBE0F901F9018951F93CF93A6
:104FD000DF93CDB7DEB7AA970FB6F894DEBF0FBE4A
:104FE000CDBFE2E7F2E08091F100819322E0EA3761
:104FF000F207C9F70E9449238091E80083FF2EC180
:105000008091720290917302492F50E04A3051050D
:1050100008F024C1FA01E556FF4F0C94052D8038A5
:1050200021F0823809F01AC108C080916E02909177
:105030006F02992389F082600FC0809176028F7091
:10504000873008F00BC18093E9008091EB0085FB6D
:10505000882780F91092E9009091E800977F90935B
:10506000E8008093F1001092F100D1C0282F2D7F2D
:1050700009F0F4C0882319F0823061F0EFC080910C
:105080007402813009F0EAC0933009F080E0809327
:105090006F022EC08091740281112AC08091760225
:1050A0008F702FEF280F263008F0D8C08093E900CA
:1050B0002091EB0020FF1CC0933021F48091EB0085
:1050C000806214C09091EB0090619093EB0021E01E
:1050D00030E0A90102C0440F551F8A95E2F74093C2
:1050E000EA001092EA008091EB0088608093EB0068
:1050F0001092E9008091E800877F8093E8000E9489
:105100000326ACC08111AAC0109174021F77809150
:10511000E3008078812B8093E3008091E800877F13
:105120008093E8000E9403268091E80080FFFCCF76
:105130008091E30080688093E300111102C082E057
:1051400001C083E08093710289C08058823008F0EA
:1051500085C080917402909175028C3D53E0950753
:1051600079F583E08A838AE289834FB7F894DE0178
:10517000139620E03EE051E2E32FF0E05093570019
:10518000E49120FF03C0E295EF703F5FEF708E2F38
:1051900090E0EA3010F0C79601C0C0968D939D93C1
:1051A0002F5F243149F74FBF8091E800877F8093BC
:1051B000E8006AE270E0CE0101960E940F2516C059
:1051C0006091760270917702AE014F5F5F4F0E944F
:1051D0003824BC01892B09F441C09091E800977FE5
:1051E0009093E80089819A810E946D258091E80062
:1051F0008B778093E80032C0803881F58091E80099
:10520000877F8093E80080916D028093F100809108
:10521000E8008E7772CF811121C080917402909145
:10522000750299270297D4F48091E800877F8093D4
:10523000E8008091740280936D020E9403268091A1
:105240006D02811106C08091E30087FD02C081E0FC
:1052500001C084E0809371020E9435238091E800B0
:1052600083FF0AC08091E800877F8093E8008091E7
:10527000EB0080628093EB00AA960FB6F894DEBF35
:105280000FBECDBFDF91CF911F9108950895CF93A9
:10529000809171028823A1F0C091E900CF709091B4
:1052A000EC00892F817090FD80E8C82B1092E900F6
:1052B0008091E80083FD0E94E627CF70C093E9004B
:1052C000CF9108955058BB27AA270E947A290C94A1
:1052D000252B0E94172B38F00E941E2B20F039F44A
:1052E0009F3F19F426F40C94ED2A0EF4E095E7FBA9
:1052F0000C94E72AE92F0E94362B58F3BA1762075D
:1053000073078407950720F079F4A6F50C94582BC1
:105310000EF4E0950B2EBA2FA02D0B01B9019001D0
:105320000C01CA01A0011124FF27591B99F0593F14
:1053300050F4503E68F11A16F040A22F232F342F5C
:105340004427585FF3CF469537952795A795F040AA
:105350005395C9F77EF41F16BA0B620B730B840BBF
:10536000BAF09150A1F0FF0FBB1F661F771F881F77
:10537000C2F70EC0BA0F621F731F841F48F48795CF
:1053800077956795B795F7959E3F08F0B0CF9395C1
:10539000880F08F09927EE0F9795879508950E943A
:1053A000E3290C94252B0E941E2B58F00E94172BEA
:1053B00040F029F45F3F29F00C94E72A51110C9436
:1053C000592B0C94ED2A0E94362B68F39923B1F3E4
:1053D000552391F3951B550BBB27AA27621773071B
:1053E000840738F09F5F5F4F220F331F441FAA1FAF
:1053F000A9F335D00E2E3AF0E0E832D0915050406B
:10540000E695001CCAF72BD0FE2F29D0660F771F18
:10541000881FBB1F261737074807AB07B0E809F0FE
:10542000BB0B802DBF01FF2793585F4F3AF09E3F83
:10543000510578F00C94E72A0C94592B5F3FE4F364
:10544000983ED4F3869577956795B795F7959F5FC6
:10545000C9F7880F911D9695879597F90895E1E012
:10546000660F771F881FBB1F621773078407BA0771
:1054700020F0621B730B840BBA0BEE1F88F7E095CC
:10548000089529F416F00C94E72A0C94582B0C94E8
:10549000ED2A0E943E2BA8F39638A0F707F80F924A
:1054A000E8942BE33AEA48EB5FE70E94EB2B0F927C
:1054B0000F920F924DB75EB70F920E94A12BEAE4B4
:1054C000F1E00E94F02A4F915F91EF91FF91E595F5
:1054D000EE1FFF1F49F0FE57E0684427EE0F441F00
:1054E000FA95E1F74195550B0E946B2B0F9007FE43
:1054F0000C945F2B08950E943E2B88F09F5798F0E4
:10550000B92F9927B751B0F0E1F0660F771F881FC8
:10551000991F1AF0BA95C9F714C0B13091F00E94E2
:10552000582BB1E008950C94582B672F782F8827BB
:10553000B85F39F0B93FCCF3869577956795B39509
:10554000D9F73EF490958095709561957F4F8F4F78
:105550009F4F0895E89409C097FB3EF4909580957D
:10556000709561957F4F8F4F9F4F9923A9F0F92F29
:1055700096E9BB279395F695879577956795B795A7
:10558000F111F8CFFAF4BB0F11F460FF1BC06F5F8D
:105590007F4F8F4F9F4F16C0882311F096E911C09F
:1055A000772321F09EE8872F762F05C0662371F0C0
:1055B00096E8862F70E060E02AF09A95660F771FD4
:1055C000881FDAF7880F9695879597F9089597F9C8
:1055D0009F6780E870E060E008959FEF80EC089599
:1055E000DF93CF931F930F93FF92EF92DF927B0194
:1055F0008C01689406C0DA2EEF010E94E82BFE01B0
:10560000E894A5912591359145915591A6F3EF0127
:105610000E947A29FE019701A801DA9469F7DF90C8
:10562000EF90FF900F911F91CF91DF91089500248B
:105630000A941616170618060906089500240A94F7
:1056400012161306140605060895092E0394000C7D
:1056500011F4882352F0BB0F40F4BF2B11F460FF0C
:1056600004C06F5F7F4F8F4F9F4F089557FD905835
:10567000440F551F59F05F3F71F04795880F97FB16
:10568000991F61F09F3F79F08795089512161306D0
:105690001406551FF2CF4695F1DF08C016161706FF
:1056A0001806991FF1CF8695710561050894089534
:1056B000E894BB2766277727CB0197F908959B01CC
:1056C000AC0160E070E080E89FE30C94CF290C947B
:1056D000E72A0C944A2C0E943E2BD8F39923C9F355
:1056E000940F511DA3F39150504094F059F088232A
:1056F00032F0660F771F881F91505040C1F79E3FD0
:1057000051052CF7880F911D9695879597F9089567
:105710005F3FACF0983E9CF0BB27869577956795E8
:10572000B79508F4B1609395C1F7BB0F58F711F422
:1057300060FFE8CF6F5F7F4F8F4F9F4FE3CF0C9499
:10574000592BFA01DC01AA0FBB1F9B01AC01BF570B
:1057500028F4222733274427507820C0B75190F4EB
:10576000AB2F0024469537952795011CA395D2F3BE
:10577000002071F0220F331F441FB395DAF30ED0CF
:105780000C94622961307105A0E88A07B94630F4AB
:105790009B01AC016627772788279078309621F007
:1057A000208331834283538308950E94E82B0C9415
:1057B000252B0E94172B38F00E941E2B20F09523DA
:1057C00011F00C94E72A0C94ED2A11240C94592B17
:1057D0000E94362B70F3959FC1F3950F50E0551F33
:1057E000629FF001729FBB27F00DB11D639FAA2736
:1057F000F00DB11DAA1F649F6627B00DA11D661F85
:10580000829F2227B00DA11D621F739FB00DA11DA5
:10581000621F839FA00D611D221F749F3327A00D5F
:10582000611D231F849F600D211D822F762F6A2FFB
:1058300011249F5750409AF0F1F088234AF0EE0F60
:10584000FF1FBB1F661F771F881F91505040A9F78D
:105850009E3F510580F00C94E72A0C94592B5F3F32
:10586000E4F3983ED4F3869577956795B795F795C9
:10587000E7959F5FC1F7FE2B880F911D9695879541
:1058800097F908959F930E945A2C0F9007FCEE5FA2
:105890000C94832C9F3F31F0915020F4879577959D
:1058A0006795B795880F911D9695879597F90895F7
:1058B0000C94ED2A0E943E2BD8F3E894E0E0BB273D
:1058C0009F57F0F02AED3FE049EC06C0EE0FBB0F0A
:1058D000661F771F881F28F0B23A62077307840794
:1058E00028F0B25A620B730B840BE3959A9572F70A
:1058F000803830F49A95BB0F661F771F881FD2F748
:1059000090480C944C2CEF93E0FF07C0A2EA2AEDDC
:105910003FE049EC5FEB0E947A290E94252B0F9013
:10592000039401FC9058E2E7F1E00C94972C9F93CC
:105930008F937F936F93FF93EF939B01AC010E9432
:10594000D52BEF91FF910E94F02A2F913F914F911B
:105950005F910C94D52BDB018F939F930E941A2D9E
:10596000BF91AF91A29F800D911DA39F900DB29FFB
:10597000900D11240895AA1BBB1B51E107C0AA1F5B
:10598000BB1FA617B70710F0A61BB70B881F991FE0
:105990005A95A9F780959095BC01CD01089597FB84
:1059A000072E16F4009407D077FD09D00E94BB2C77
:1059B00007FC05D03EF4909581959F4F0895709512
:1059C00061957F4F0895A1E21A2EAA1BBB1BFD0112
:1059D0000DC0AA1FBB1FEE1FFF1FA217B307E407CE
:1059E000F50720F0A21BB30BE40BF50B661F771F26
:1059F000881F991F1A9469F7609570958095909506
:105A00009B01AC01BD01CF010895EE0FFF1F059072
:105A1000F491E02D0994A29FB001B39FC001A39F10
:105A2000700D811D1124911DB29F700D811D1124D7
:105A3000911D08950E940B2DA59F900DB49F900D70
:105A4000A49F800D911D11240895FC0141505040E8
:105A500030F001900616D1F73197CF0108958827CD
:105A600099270895F999FECF92BD81BDF89A99279B
:105A700080B50895A6E1B0E044E050E00C946C2DB0
:105A8000A8E1B0E042E050E00C946C2D262FF9998B
:105A9000FECF92BD81BDF89A019700B4021639F08D
:105AA0001FBA20BD0FB6F894FA9AF99A0FBE08955E
:105AB0000396272F0E94472D0E94462D252F0E94D6
:105AC000472D242F0C94472D0196272F0E94472DF8
:105AD0000C94462DDC01CB01FC01F999FECF06C0E8
